:020000041004E6
:1000000000800020C53304102D3204103732041054
:1000100000000000000000000000000000000000E0
:100020000000000000000000000000003D3204104D
:10003000000000000000000047320410952A041060
:10004000113404101134041011340410113404104C
:100050001134041011340410000000001134041095
:1000600051320410113404101134041011340410EE
:100070001134041011340410000000001134041075
:10008000113404103105041011340410113404101B
:1000900011340410113404101134041011340410FC
:1000A00011340410113404101134041011340410EC
:1000B000113404101134041000000000000000008E
:1000C00003B47146490840004900095E49008E4466
:1000D00003BC7047002243088B4274D303098B4250
:1000E0005FD3030A8B4244D3030B8B4228D3030C08
:1000F0008B420DD3FF22090212BA030C8B4202D3AA
:100100001212090265D0030B8B4219D300E0090AD1
:10011000C30B8B4201D3CB03C01A5241830B8B42DA
:1001200001D38B03C01A5241430B8B4201D34B03C3
:10013000C01A5241030B8B4201D30B03C01A524128
:10014000C30A8B4201D3CB02C01A5241830A8B42AD
:1001500001D38B02C01A5241430A8B4201D34B0296
:10016000C01A5241030A8B4201D30B02C01A5241FA
:10017000CDD2C3098B4201D3CB01C01A52418309AE
:100180008B4201D38B01C01A524143098B4201D3E8
:100190004B01C01A524103098B4201D30B01C01A13
:1001A0005241C3088B4201D3CB00C01A524183088D
:1001B0008B4201D38B00C01A524143088B4201D3BA
:1001C0004B00C01A5241411A00D20146524110461A
:1001D0007047FFE701B5002000F006F802BDC046F9
:1001E0000029F7D076E770477047C046002B11D141
:1001F000002A0FD1002900D1002802D00021C943D4
:10020000080007B4024802A14018029003BDC0468E
:10021000D9FFFFFF03B4684601B5029800F034F837
:10022000019B9E4602B00CBC7047C046F0B5CE465E
:100230009946030C9C46130447461B0C1D000E00F8
:1002400061460404240C80B50700100C4B43654341
:10025000414360432C0CC01824188C46A34203D998
:1002600080235B029846C444494679435643230C95
:100270002D042D0C8919634424046019C918C0BCCD
:10028000B946B046F0BDC046F0B557464E46454665
:10029000DE46E0B504000D009246994683B08B42DD
:1002A00030D82DD04946504600F0BAF82900060053
:1002B000200000F0B5F8331A9846203B34D49B4612
:1002C00053465A46934042461F00534693401E00F1
:1002D000AF423BD8AF4200D179E05B46A41BBD41A1
:1002E000002B00DA76E00022002300920193012324
:1002F0005A4693400193012342469340009329E0DC
:100300008242CFD900220023009201930C9B002B44
:1003100001D01C605D600098019903B0F0BCBB4641
:10032000B246A946A046F0BD42469B4620239B1AF2
:100330005246DA40414613004A468A401700424678
:100340001F43534693401E00AF42C3D900220023EF
:10035000009201934346002BD8D0FB0772081A4342
:1003600046467B080EE0AB4201D1A2420CD8A41A4B
:100370009D41012024196D410021013E24184D4169
:10038000002E06D0AB42EED9013E24196D41002E5D
:10039000F8D1009801995B4600196941002B24DBD4
:1003A0002B005A464446D3402A00E2401C005B46DC
:1003B0001500002B2ADB26009E403300260047460E
:1003C000BE403200801A9941009001919EE7A342FD
:1003D000BCD882E74246202300219B1A00220091CC
:1003E00001920122DA40019285E7424620239B1ABE
:1003F0002A0046469A402300F340444613432A000D
:10040000E2401C005B461500002BD4DA42462F0068
:100410002023260097409B1ADE403B003343CDE764
:1004200010B5002903D100F007F8203002E00800E1
:1004300000F002F810BDC0461C2101231B049842A5
:1004400001D3000C10391B0A984201D3000A083965
:100450001B09984201D30009043902A2105C40181C
:100460007047C046040302020101010100000000C0
:100470000000000080B582B000AF786039603A6853
:1004800013009B009B189B00094A9446634419681B
:100490003A6813009B009B189B00054A94466344EE
:1004A000012291430A001A60C046BD4602B080BDD9
:1004B000F4FF6F4880B582B000AF78607B681A683F
:1004C00080239B001A4080239B009A4201D1012384
:1004D00000E000231800BD4602B080BD80B582B0A8
:1004E00000AF78607B681A6880231B011A40802364
:1004F0001B019A4201D1012300E000231800BD46F0
:1005000002B080BD80B582B000AF78607B68802289
:1005100052005A60C046BD4602B080BD80B500AFF3
:10052000024B03211800FFF7A5FFFEE7000070480B
:1005300080B500AF0C4B1800FFF7BCFF031E07D0BF
:10054000094B1800FFF7DEFF084B01221A7007E085
:10055000054B1800FFF7C2FF031E01D0FFF7DEFFB7
:10056000C046BD4680BDC04600007048501B0020FC
:1005700080B500AF0C4B00221A700B4B0B4A0021C8
:100580009952094B0A4A00219954074B094A002104
:100590009954054B084A00219954034B074AFF21FF
:1005A0009954C046BD4680BD3800002014040000A8
:1005B00001040000130400001604000017040000EA
:1005C00080B582B000AF0200FB1D1A70FB1D1B78C6
:1005D000602B0DD8FB1D1B78402B07D8FB1D1B780B
:1005E000392B01D8302304E0002302E0372300E058
:1005F0005723FA1D1278D31ADBB21800BD4602B099
:1006000080BD000080B582B000AF0200FB1D1A70F3
:10061000FB1D1B780133094A0949D3185B181A7866
:10062000FB1D1B7805490648CB181B181B78D31AED
:10063000DBB21800BD4602B080BDC04638000020C5
:100640000104000080B582B000AF0200FB1D1A70EB
:10065000FB1D1B785BB2064A0649D3185B181B7852
:100660001A00054BD3181800BD4602B080BDC04625
:10067000380000200104000039000020F0B585B0EA
:1006800000AF78600A00FB1C1A700F23FB180022D1
:100690001A707B68002B12D10A23FB18180002F095
:1006A00083FB031E02D0012B04D11DE00F23FB1896
:1006B0001B7848E1A64BA74A01219954C4E0FB1CD2
:1006C0001B78002B03D10F23FB181B783BE17B68C1
:1006D0001A780A23FB181A707B6801337B60FB1CB5
:1006E000FA1C1278013A1A700A217B181B780D2B1C
:1006F00000D11EE17B181B780A3B5A425341DAB203
:100700000F23FB181A707B181B78203B5A42534169
:10071000DAB20E23FB181A707B181B78223B5A4260
:100720005341DAB20D23FB181A70894B1B78042B46
:10073000AFD89A00884BD3181B689F460F23FB182D
:100740001B78002B02D000F0ABF9F4E00E23FB186D
:100750001B78002B00D0EEE00D23FB181B78002B3C
:1007600003D07B4B02221A70B6E00A23FB181B78D9
:100770007B2B03D1764B03221A70ADE0744B012220
:100780001A70A9E00F23FB181B78002B00D072E031
:100790000E23FB181B78002B00D19AE06BE00D2391
:1007A000FB181B78002B00D195E067E0684B6B4A83
:1007B0009B5CFF3B5A1E9341DAB20C217B181A70E6
:1007C0000A23FB181B787D2B08D17B181B78002B84
:1007D00053D05F4B5F4A0521995435E00A26BB1977
:1007E0001B780B257C191800FFF7EAFE0300237025
:1007F00029007B181B780F2B1BD80C23FB181B78A8
:10080000002B0FD0524B554A9B5C1B01DAB27B1870
:100810001B78D318DAB2BB191A704D4B4F4AFF211F
:10082000995459E04A4B0B22BA184C4912785A5441
:1008300083E00E23FB181B78002B00D07DE0444B97
:10084000444A05219954C046414B04221A700F2393
:10085000FB181B78002B00D171E03D4B3D4A9B5C9F
:10086000002B05D03A4B3B4A9B5C180000F03EFB46
:10087000FFF77EFE63E0C04600E0C046344B384AD6
:100880009B5C112B04D1324B324A03219954DBE794
:100890002F4B334A9B5C0133D9B22D4B304A9954CC
:1008A0002B4B304A995A2A4B2D4A9B5C1800C9B2EF
:1008B000274B2D4A1B189B180A1C1A70244B002228
:1008C0001A700F23FB181B78002B3AD000F0E8F8C1
:1008D00037E0C04600E0C0461D4B224A9A5A8023AA
:1008E000DB009A4204D11A4B1A4A06219954ABE70D
:1008F000174B1B78012B09D10A243B191B781800D0
:1009000000F034F803001A003B191A70104B154A16
:100910009B5A19000A23FB181A780D4B5B185A7062
:100920000B4B104A9B5A013399B2094B0D4A99520D
:1009300008E0C046ADE6C046ABE6C046A9E6C04604
:10094000A7E6C046A5E61800BD4605B0F0BDC04606
:100950003800002016040000D873041017040000AB
:1009600013040000140400000104000080B582B0EC
:1009700000AF0200FB1D1A70FB1D1B78402B08D92D
:10098000FB1D1B785A2B04D8FB1D1B782033DBB2D0
:1009900001E0FB1D1B781800BD4602B080BD0000C1
:1009A00080B584B000AF0200FB1D1A700C4A83238F
:1009B000DB00D15C0F203B18FA1D12788A181A70E0
:1009C0003B181B78064A0749D3185B181B781A0096
:1009D000034B9B185B781800BD4604B080BDC04631
:1009E000380000200104000090B589B000AF7860A5
:1009F0000A00FB1C1A70FB1C1B785BB21800FFF787
:100A000021FE03003B610F23FC18FB1C1B78180020
:100A1000FFF7F8FD030023701F23FB1800221A7054
:100A200034E07B681B68BB613B697B617A693B6929
:100A3000D21A0F23FB181B789A4205D1BB691B7889
:100A4000002B17D17B6826E07B691B781800FFF725
:100A50008DFF03001C00BB691B781800FFF786FFA1
:100A600003009C4208D1BB690133BB617B69013340
:100A70007B61DBE7C04600E0C0461F217B181A7887
:100A80007B1801321A707B6810337B607B685B686F
:100A9000002BC6D100231800BD4609B090BD000050
:100AA000B0B584B000AF724BFB600B23FB18002283
:100AB0001A70704B704A9B5C002B00D1D1E00B2464
:100AC0003B191A78FB6811001800FFF78DFF03002F
:100AD000FB60FB68002B1AD03B193A1912780132DF
:100AE0001A70FB689B681B786E2B03D1FB685B68F0
:100AF000FB60E4E75F4A0B23F9188323DB000978E6
:100B0000D154C0460A23FB1800221A7077E0594BD3
:100B10005A4A0221995491E0FB689A680A217B188D
:100B20001B78D21809257B1912781A700823FC1833
:100B30007B181B781800FFF733FF030023707B1925
:100B40001B78772B42DC752B07DA732B05D03DDC45
:100B5000002B36D0622B26D038E00922BB181B7838
:100B6000752B0ED0BB181B78762B08D0BB181B78C2
:100B7000732B01D17F2305E001235B4202E0404B50
:100B800000E0FF237B600A23FB181B78012118007B
:100B900000F07AF802007B6893421CD2354B374A4A
:100BA0000421995417E00822BB181B78222B14D07B
:100BB000BB181B787B2B10D02E4B304A0521995443
:100BC0000BE02C4B2D4A0321995407E0294B2B4A6B
:100BD0000721995402E0C04600E0C046254B274A51
:100BE0009B5C002B27D10B217B181A787B180132D4
:100BF0001A700A217B181A787B1801321A701D4B63
:100C00001D4A9B5C0B22BA1812789A4284D3FB6867
:100C10009B68184A1849525C100016498322D2007A
:100C20008A5C821A9B181B78002B06D0114B134A42
:100C30000321995402E0C04600E0C0460D4B0F4A24
:100C40009B5C002B06D1FB685B6898470D4BFA68EC
:100C50001A6007E0074B094A9B5C180000F046F950
:100C600000E0C046FFF784FCC046BD4604B0B0BDFE
:100C7000881B002038000020130400001604000028
:100C8000FFFF000034000020B0B586B000AF0200C6
:100C9000FB1D1A70BB1D0A1C1A70414A8323DB001E
:100CA000D15C11203B18FA1D12788A181A703B1873
:100CB0001B783B4A3B49D3185B181B781A003A4B08
:100CC000D318FB600B23FC183B181B781800FFF7A8
:100CD00099FC0300237000237B611323FB180A2275
:100CE0001A701223FB1800221A704CE012217B1894
:100CF0001B78FA68D2180A203B1812781A70BB1DAC
:100D00001B78002B07D07B181B78002B03D13B18D6
:100D10001B782D2B31D00A22BB181B78782B03D0DF
:100D2000BB181B78582B07D17B69002B04D11323E8
:100D3000FB1810221A7020E009257C190A23FB18E1
:100D40001B781800FFF73CFC0300237029007A1879
:100D500013203B1812781B789A4208D23B181B7854
:100D60007A695A437B181B78D3187B6105E00C4BDA
:100D70000E4A0521995400230EE012217B181A789F
:100D80007B1801321A701223FA180B23FB18127801
:100D90001B789A42AAD37B691800BD4606B0B0BD45
:100DA0003800002001040000390000201604000073
:100DB00080B582B000AF0200FB1D1A70FB1D1B78CE
:100DC00000211800FFF760FF03001800BD4602B0C5
:100DD00080BD000090B585B000AF02003960FB1DFA
:100DE0001A70194A8323DB00D15CFB1D1A780F208F
:100DF0003B188A181A70FB1D1B78DB43DBB2DB093A
:100E0000DAB20E243B191A703B68002B0CD03B1849
:100E10001B781800FFF7F6FB03001A003B191B783C
:100E2000D31ADAB23B681A700F23FB181B785BB237
:100E30001800FFF707FC02000E23FB181B78D318DD
:100E40001800BD4605B090BD3800002090B585B0B3
:100E500000AF0400396010001900FB1D221C1A703D
:100E6000BB1D021C1A707B1D0A1C1A700A243A1939
:100E7000FB1D1B785BB211001800FFF7ABFF0300EE
:100E8000FB6021007B181B78BA1D12789A4203D2AE
:100E90007B18BA1D12781A707B1D1B78002B07D0A7
:100EA0000A23FB181B78BA1D1278D31ADAB200E0B5
:100EB00000220B243B191A703B191A783B68002159
:100EC000180004F073FF3B191B783A68D0180A2405
:100ED0003B191B781A00FB68190004F0C6FF3B1988
:100EE0001B781800BD4605B090BD000080B582B0EB
:100EF00000AF0200FB1D1A70FB1D1A78054B920013
:100F0000D258054B1100180004F034FDC046BD4610
:100F100002B080BD541B0020E069041080B584B08D
:100F200000AF78607B681A6A7B680433D21A0F219D
:100F30007B181A707B681B687A68101D7A18127803
:100F400011009847031E01D100230FE07B6829227E
:100F50009A5C0F23FB181B78D318D9B27B6829221F
:100F600099547B681A1D7B681A6201231800BD46DC
:100F700004B080BD90B585B000AF786039600F23B4
:100F8000FB1800221A7005E00F217B181A787B18D5
:100F900001321A700F243B191B783A68D3181B785A
:100FA000002BF1D17B681B683A1911783A68100060
:100FB0009847031E0BD07B6829229A5C3B191B784B
:100FC000D318D9B27B6829229954012300E0002369
:100FD0001800BD4605B090BD90B591B000AFF86067
:100FE000B9607A603C23FB1800221A80FB681A1D46
:100FF000FB681A62FB68043310331A00FB685A62FC
:10100000FB68292200219954DBE234217B18BA685D
:1010100012781A700A00BB181B78252B2DD0BB182C
:101020001B78262B29D0BB181B787B2B07D0BB182D
:101030001B787D2B03D0BB181B78232B0DD1CD4BF8
:101040001B78002B18D0FB681B6A591CFA681162C8
:101050003422BA1812781A700EE0C74B1B78002B96
:1010600000D19EE2FB681B6A591CFA6811623422A7
:10107000BA1812781A7094E293E2BB680133BB602D
:10108000BB681B78252B03D0BB681B78262B08D1A7
:10109000FB681B6A591CFA681162BA6812781A70E8
:1010A00080E23423FB181B78262B17D1B14B1B7819
:1010B000002B13D03E23FB1801221A70BB681B784B
:1010C0006E2B10D0BB681B784E2B0CD0FB681B6AB4
:1010D000591CFA6811627B221A7004E03E23FB1847
:1010E00000221A7000E0C0463F23FB1800221A704D
:1010F000BB681B78742B4ED000DD76E06E2B06D0DB
:1011000000DD72E04E2B02D0542B44D06DE07B68A2
:101110001A1D7A601B68FB62984B1B78002B35D038
:101120003E23FB181B78002B0DD0FB681B6A591C53
:10113000FA6811627B221A70FB681B6A591CFA68F4
:10114000116228221A70FB681800FFF7E7FE031EE1
:1011500000D145E2FA6AFB6811001800FFF70AFFA8
:10116000031E00D13CE23E23FB181B78002B0DD060
:10117000FB681B6A591CFA68116229221A70FB6805
:101180001B6A591CFA6811627D221A703E23FB18F3
:1011900000221A70F8E17B681A1D7A601B683B63B5
:1011A000FB681800FFF7BAFE031E00D118E23A6B85
:1011B000FB6811001800FFF7DDFE031E00D10FE2EF
:1011C000FB681800FFF7AAFE031E00D108E2FB68C7
:1011D0001B6A591CFA6811623A221A703F23FB18E5
:1011E00001221A70BB680133BB60BB681A782B21DF
:1011F0007B18303A1A70BB685A1C2A203B181278A8
:101200001A707B181B78012B00D86CE07B181B78B8
:10121000062B68D83B181B78642B03D03B181B782F
:10122000752B60D13A203B1800221A707B681A1D7A
:101230007A601A6838217B181A803C23FB187A18C8
:1012400012881A803B23FB1801221A702A23FB18EC
:101250001B78642B0ED17B1800229B5E002B09DAD1
:101260003B181A783B1801321A707B187A181288CA
:1012700052421A803823FB181B88002B16D00FE02F
:101280003A217B181A787B1801321A703823FC181F
:10129000FB181B880A211800FEF71CFF030023809F
:1012A0003823FB181B88002BEAD10DE03A217B186C
:1012B0001A787B1801321A7006E0FB681B6A591C09
:1012C000FA68116220221A703A22BB181B78BA18E9
:1012D000591C11702B22BA1812789A42EDD8BB68AB
:1012E0000133BB6003E03B23FB1800221A70BB688C
:1012F0001B78002B00D131E100DA37E1782B00DDDB
:1013000034E1322B00DA31E1323B462B00D92DE1BA
:101310009A001B4BD3181B689F467B681A1D7A6086
:101320001868FB681B6A591CFA681162C2B21A700D
:101330002AE17B681A1D7A601B687B62FB681800D3
:10134000FFF7ECFD031E00D14AE17A6AFB68110049
:101350001800FFF70FFE031E00D014E140E13B230D
:10136000FB181B78002B0DD17B681A1D7A601B6857
:101370009BB20AE0761B0020771B0020751B002023
:10138000EC7304103C23FB181B8836217A18138059
:101390007B181B88002B07D1FB681B6A591CFA6855
:1013A000116230221A70EFE03523FB1800221A7008
:1013B000BB681B78642B36D136203B1800229B5E1D
:1013C000002B30DAFB681B6A591CFA6811622D2267
:1013D0001A703B181A8880231B029A4223D03B18AC
:1013E0003A18128852421A801DE036243B191B8895
:1013F0000A211800FEF7F4FE0B0099B23522BB1843
:101400001B78BA18581C10701A00C9B21423FB18A4
:1014100099542300FC18FB181B880A211800FEF7BA
:1014200059FE030023803623FB181B88002BDCD1D8
:101430000EE03523FB181B781422BA18D15CFB6828
:101440001B6A581CFA6810620A003032D2B21A7055
:101450003522BB181B78BA18591E1170002BE8D121
:1014600092E0FB681B6A591CFA68116230221A70FC
:10147000FB681B6A591CFA68116278221A707B6833
:101480001A1D7A601A6823217B181A70FB68186A83
:101490007B181B789BB20222190000F0FDF80200B5
:1014A000FB681A6270E0BB680133BB60BB681B78E5
:1014B000682B03D0BB681B78482B0ED1FB681B6AD6
:1014C000591CFA68116230221A70FB681B6A591C99
:1014D000FA68116278221A700BE0BB681B78782BCF
:1014E00007D0BB681B78582B03D0BB68013BBB609F
:1014F0004AE0BB68013B1B78322B12D17B681A1D76
:101500007A601A681A217B181A80FB68186A7B189F
:101510001B880422190000F0BFF80200FB681A6261
:1015200032E07B681A1D7A601B68FB61FB68186AF1
:10153000FB691B0C9BB20422190000F0ADF80200FD
:10154000FB681A62FB681B6AFA6991B204221800F0
:1015500000F0A2F80200FB681A6215E03F23FB18B6
:101560001B78002B02D1BB68013BBB603F23FB18FB
:101570001B78002B08D0FB681A1DFB681A62BB6839
:10158000013BBB6000E0C0463E23FB181B78002BEC
:1015900008D0FB681B6A591CFA6811627D221A7018
:1015A00000E0C046FB685A6AFB681B6A9A4205D88D
:1015B000FB681800FFF7B2FC031E11D0BB680133B3
:1015C000BB60BB681B78002B00D01EE5FB681800D1
:1015D000FFF7A4FC031E03D0FB6829229B5C00E0FC
:1015E00000231800BD4611B090BDC0460FB480B5B1
:1015F0008EB000AF3723FB1801221A70104B1B78F6
:10160000002B01D1012314E03B1D0E4A1A60442334
:10161000FB183B633A6B396C3B1D1800FFF7DCFC91
:10162000031E03D13723FB1800221A703723FB183F
:101630001B781800BD460EB080BC08BC04B018472B
:10164000741B0020F51804100FB490B58FB000AFD4
:1016500037243B1901221A703B1D0E4A1A6044239D
:1016600008229B18DB193B633A6BB96C3B1D1800D1
:10167000FFF7B2FC031E02D13B1900221A70372378
:10168000FB181B781800BD460FB090BC08BC04B016
:101690001847C046F518041080B584B000AF7860D4
:1016A00008001100BB1C021C1A807B1C0A1C1A704B
:1016B0000F23FB187A1C12781A707B1C1B787A682F
:1016C000D3187B6023E0BB1C1B88DAB20E203B18CA
:1016D0000F210A401A70BB1CBA1C128812091A800A
:1016E0003B181B78092B01D8302300E037237A6898
:1016F000013A7A600E22BA1812789B18DAB27B6827
:101700001A700F217B181A787B18013A1A700F2370
:10171000FB181B78002BD6D17B1C1B787A68D3185A
:101720001800BD4604B080BD80B582B000AF7860BF
:1017300007E07B681B78180004F02CF97B68013304
:101740007B607B681B78002BF3D101231800BD461A
:1017500002B080BDB0B586B000AFF8607A600A20F4
:101760003B180A1C1A807B681B88002B05D07B68FD
:101770001B883A1812889A4202D8FB6800221A7015
:1017800017257C191623FB18180000F0ECF803004D
:1017900023707B191B78002B02D17B191B78A2E0E8
:1017A0001622BB181B785BB2002B00DA93E07B6833
:1017B0001B88002B09D1BB181B780A2B00D18CE0A9
:1017C000BB181B78002B00D187E07B681B880A229E
:1017D000BA1812889A420DD87B6800221A80162205
:1017E000BB181B780D2B00D179E0BB181B78002BA0
:1017F00000D174E01623FB181B78082B16D17B68E8
:101800001B88002B00D16CE07B681B88013B9AB2DF
:101810007B681A807B681B881A00FB689B18002273
:101820001A70334B1800FFF77FFF5AE07B681B8864
:101830005A1C0A23FB181B889A4203DB1623FB1849
:101840000D221A7016243B191B78180000F07BF843
:1018500021007B181B78602B09D97B181B787A2B09
:1018600005D87B181B78203BDAB27B181A70162239
:10187000BB181B780D2B03D0BB181B780A2B1CD16F
:101880007B681B881A00FB689B1800221A701623BD
:10189000FB181B780D2B06D10A2000F054F87B684A
:1018A00000221A8007E00D2000F04DF87B680A2224
:1018B000BA1812881A80012315E07B681B885A1C0D
:1018C00091B27A6811801A00FB689B181622BA1828
:1018D00012781A7054E7C04652E7C04650E7C04637
:1018E0004EE7C0464CE71800BD4606B0B0BDC04646
:1018F000E869041090B585B000AF78600A00FB1C61
:101900001A700F217B1800221A707B1800221A709F
:101910000DE00F243B191B787A68D3181B78180048
:1019200004F038F83B191A783B1901321A700F236A
:10193000FA18FB1C12781B789A42EAD3012318008C
:10194000BD4605B090BD80B582B000AF0200FB1D62
:101950001A70FB1D01211800FFF7CCFF03001800CF
:10196000BD4602B080BD80B582B000AF78607B68B4
:10197000180001F019FA03001800BD4602B080BD3E
:1019800080B582B000AF0200FB1D1A70074B9B6A46
:101990000F2293431900FB1D1B780F221A40034BA3
:1019A0000A439A62C046BD4602B080BD00050049A8
:1019B00090B585B002AF786039603C68054A7968B7
:1019C0000548064B00932300FFF710FEC046BD46B6
:1019D00003B090BDF4690410006A0410146A041086
:1019E00090B587B000AFF860B9603B60FB1D1A701E
:1019F000BA68174B11001800FFF726FE1623FB18D4
:101A000000221A8010E016243B191B88FA68D318AC
:101A10001B781A000F4B1100180003F0ABFF3B19A5
:101A20001A883B1901321A801623FB181B883A6862
:101A30009A42E8D8FB1D1A78074B9200D258074B00
:101A400011001800FFF700FEC046BD4607B090BD6C
:101A50001C6A0410246A0410781B00202C6A0410ED
:101A600080B582B000AF0020FFF7A2F903007B60D1
:101A70007B681B68044A05490548FFF7E5FDC04639
:101A8000BD4602B080BDC046346A04103C6A0410F2
:101A90004C6A041080B582B000AF0020FFF788F9CF
:101AA00003007B600120FFF783F903003B607B6844
:101AB0003A681A60044A054B11001800FFF7C4FD8C
:101AC000C046BD4602B080BD686A0410786A041042
:101AD00080B500AF00F0F0FF0300044A0449054858
:101AE000FFF7B2FDC046BD4680BDC046906A0410F7
:101AF000986A0410A46A041080B500AF01F012F8CF
:101B0000044A054B11001800FFF79EFDC046BD4674
:101B100080BDC046BC6A0410CC6A0410F0B589B020
:101B200000AF02000E203B181A800C2308215B181E
:101B3000DE193B181B8814211800FEF7CBFA0300AE
:101B400033800E203B181B8814211800FEF748FB39
:101B50000B009AB20B2308215B18DB191A700122C3
:101B60000023BA61FB610E235B18DB1900221A8087
:101B700018E0B869F96902000B00960F9D00354323
:101B8000940002000B0012196B4192185B41BA617C
:101B9000FB610E2108200B18DB191A880B18DB19C2
:101BA00001321A800E2308215B18DA190C235B1806
:101BB000DB1912881B889A42DBD30B235B18DB19D5
:101BC0001A78094B5200D35A3B6000237B60BA69F4
:101BD000FB6938687968FEF729FB02000B001000EA
:101BE0001900BD4609B0F0BD0875041080B584B079
:101BF00000AF78600A00FB1C1A700023BB60002352
:101C0000FB600DE07A68FB68D3181B781A00094B5B
:101C10009B5C1A00BB689B18BB60FB680133FB60D0
:101C2000FB1C1B78FA689A42ECD3BB681800BD46CF
:101C300004B080BD3075041080B5C6B000AFF86048
:101C4000B960224B8C2149005B18DB191A70002304
:101C50008A225200BA1813601CE0FA688A204000F9
:101C60003B181B68D3181A78B9683B181B68CB1847
:101C70001B785340D9B2164B8C2252009B18DA19AC
:101C80003B181B68D3180A1C1A703B181B680133D9
:101C90003A1813600D4B8C2149005B18DB191B7837
:101CA0008A225200BA1812689A42D6D3074B5B18A0
:101CB000DB191A781423FB1811001800FFF796FFA0
:101CC00003001800BD4646B080BDC046EFFEFFFFD2
:101CD000FCFEFFFFF0B59DB004AF786139610F20C5
:101CE0003B181A70522308215B18DB1900221A8056
:101CF00050235B18DB1900221A8000233B65002269
:101D00000023BA64FB6400233B643B181B78002B60
:101D10000AD04F235B18DE19C1490023FF2202209D
:101D2000FFF794F803003370BE4B1800FFF78CFCEC
:101D30000F23FB181B78002B0FD0BB4EBB4ABC49AE
:101D4000BC48BD4B0393BD4B0293BD4B0193BD4BB0
:101D500000933300FFF74AFC0EE0B34EB34AB44998
:101D6000B448B94B0393B94B0293B94B0193B54BAC
:101D700000933300FFF73AFC0220FFF701FE00F06A
:101D80009BFE0300FB63B34AF96BB3480023019346
:101D9000002300930023FFF757FCB04B1B68BB6385
:101DA00000F08AFE03007B630A233B63AC4BFB62BB
:101DB000BB6B3A6B134000D1E4E0A84BDB689AB2EE
:101DC000222308201B18DB19D205D20D1A80A34B41
:101DD000DA6920210B18DB191A80A04B9B697B6202
:101DE000A04B5B693B629D4B3A6B1A600B18DA198A
:101DF0000B18DB191B8899B2FF2900D9FF23138028
:101E00000F23FB181B78002B34D0202308269B19A6
:101E1000DB191B88DAB2396A814B1800FFF70CFF17
:101E20000300FB61FB69002B08D052218B19DB19E1
:101E30001A888B19DB1901321A8008E0502108201A
:101E40000B18DB191A880B18DB1901321A802223B0
:101E500008229B18DB191B881800FFF75FFEBA6C7D
:101E6000FB6C12184B41BA64FB643A6DFB69D318E2
:101E70003B6511E0BB6B0822134001D07A4B00E0B8
:101E80007A4BFB65202308229B18DB191A88396AD4
:101E9000634B180003F0E9FF0220FFF771FD0F23E9
:101EA000FB181B78002B29D1222308229B18DB1951
:101EB0001E88FA6D796B6E487B6A00933300FFF7DA
:101EC000C3FB00237B640CE0554A7B6CD3181B7862
:101ED0001A00684B1100180003F04CFD7B6C0133B5
:101EE0007B64202308229B18DB191B887A6C9A429A
:101EF000EADB614B1800FFF7A7FB1CE04F2308212A
:101F00005B18DB191B789BB220225218D219128859
:101F10009A4210D000F0D0FD06002022082153186C
:101F2000DB191B88554A4C48002101910021009182
:101F30003100FFF789FB494B1B68BB63BB6B3A6BF6
:101F400013403B643B6C002B00D1A3E0434BDB68A8
:101F50009AB2122308215B18DB19D205D20D1A8020
:101F600000F0AAFD0600122308229B18DB191B882B
:101F7000434A394800210191002100913100FFF7C7
:101F800063FB87E0BB6BFA6A134010D000F094FD4E
:101F90000600BB6B3B4A30480021019100210091B3
:101FA0003100FFF751FB2D4BFA6A1A6072E0BB6BF0
:101FB000042213400DD0344A796B27480023019343
:101FC000002300930023FFF73FFB244B04221A60F9
:101FD00060E07B69002B5DD07A6BFB6BD31A7A696A
:101FE0009A4257D2FB6C1C0000231D00A446BB6C18
:101FF000502208201218D219128852210918C91922
:102000000988224E7D6B224C386D0390029101921B
:1020100000936346320029002000FFF715FB69E0BA
:1020200054040020E06A0410146A0410F4690410D7
:10203000086B04100C6B0410286B04102C6B04103C
:10204000306B0410386B0410406B0410486B0410A4
:10205000506B0410586B0410606B041000060049AC
:1020600000024001000400497C6B04108C6B0410DA
:10207000946B0410246A0410AC6B0410B46B04104D
:10208000C46B0410D06B0410D86B0410E06B041008
:10209000F06B0410112608217318DB191800FFF7E4
:1020A00062FC031E00D178E608217318DB191B7847
:1020B000652B00D071E6FB6C1B003B6000237B604E
:1020C0003B689C46BB6C502208005218D2191288FB
:1020D00052210918C91909880A4E7D6B0A4C386DBE
:1020E0000390029101920093634632002900200080
:1020F000FFF7AAFA0520FFF743FCC046BD4619B01A
:10210000F0BDC046106C0410F06B041080B582B0B6
:1021100000AF0020FEF74CFE03007B600120FEF7BD
:1021200047FE03003B6039687B6801221800FFF717
:10213000D1FDC046BD4602B080BD80B582B000AFC3
:102140000020FEF735FE03007B600120FEF730FE25
:1021500003003B6039687B6800221800FFF7BAFD76
:10216000C046BD4602B080BD80B586B000AF00233A
:102170007B61254B8022D2021A600220FFF700FC0F
:102180000CE0FB1D1800FFF7EEFB031E06D0FB1D45
:102190001B78652B02D101237B6105E01A4B1A687D
:1021A0008023DB021340ECD00520FFF7E9FB7B69BD
:1021B000164A17491748FFF747FA134BDA690E23F7
:1021C000FB181A80144B5B69BB6000233B610CE079
:1021D0003B69BA68D3181B781A00104B110018001D
:1021E00003F0C8FB3B6901333B610E23FB181B88DE
:1021F0003A699A42ECDB0A4B1800FFF725FAC04611
:10220000BD4606B080BDC04600060049D06B041034
:102210001C6C0410246C041000040049246A04108F
:10222000AC6B041080B58AB000AF0020FEF7C0FD93
:102230000300FB610120FEF7BBFD0300BB61604BA7
:10224000DB69FF2B03D85E4BDB699AB200E0FF220B
:1022500016203B181A805A4B5B6919003B181B88E3
:10226000DAB200230220FEF7F1FD03001A00142366
:10227000FB181A80534B1800FFF7E6F9524B534AEC
:1022800053495448FFF7B2F900F016FC0100524AD6
:10229000524B1800FFF7D8F900237B6280E000F072
:1022A0000BFC03003B612323FB1800221A707B6A9E
:1022B000002B06DDBB695A1E7B6A9A4201D10123BD
:1022C00000E00023FB603A69FB69D2183B699A423F
:1022D0009B415B42DAB20B23FB181A700120FFF717
:1022E0004FFB2323FB1801221A7000F0E5FB0300CB
:1022F0007B607A683B699A4204D30B23FB181B78F6
:10230000002B05D13A69FB69D3187A689A422DD21D
:10231000334B1B680122134011D000F0CDFB0100AC
:10232000304A2E4B1800FFF78FF92323FB180022A9
:102330001A702B4B01221A60FB68002B18D1FB1C72
:102340001800FFF710FB031ECFD0FB1C1B78652B7A
:10235000CBD100F0B1FB0100234A204B1800FFF75E
:1023600073F92323FB1802221A7002E0C04600E032
:10237000C0462323FB181B785BB2012B07D100F06A
:102380009BFB0100194A154B1800FFF75DF9232349
:10239000FB181B785BB2002B0CD17B6A01337B628C
:1023A0007B6ABA699A4200D979E7BB69002B00D1F0
:1023B00075E700E0C046C046BD460AB080BDC046D5
:1023C000000400493C6C0410146A0410F469041001
:1023D000686C04106C6C0410586B04107C6C041056
:1023E00000060049886C0410106C0410906C0410F6
:1023F00090B589B002AF0020FEF7DAFC03003B6124
:102400002B4B1800FFF720F92A4C2B4A2B492C485C
:102410002C4B00932300FFF7E9F83B69322B00D2E5
:1024200032233B613A6913005B019B1A9B009B18A6
:10243000DB003B6100F040FB0300FB60224BF968CE
:1024400022480022FFF700F9FA683B69D3187B6144
:1024500000F032FB0300BB60BA687B699A4212D37A
:102460001B4BDB681B0B9AB2BB1DD205D20D1A8029
:10247000BB1D1A88174BB9681748FFF7E5F8BA680B
:102480003B69D3187B617B1D1800FFF76CFA031EB4
:10249000DED07B1D1B78652BDAD1104BB9680B4859
:1024A0000022FFF7D1F8C046BD4607B090BDC04638
:1024B0009C6C0410386B0410F4690410C46C041094
:1024C000006A0410146A0410586B0410D06C0410D5
:1024D00000060049EC690410E06C0410106C041054
:1024E00090B58FB002AF0C23FB18504A13CA13C328
:1024F00012681A604E4BBB624E4B180003F0AAFAEA
:102500004D4C4E4A4E494F484F4B00932300FFF726
:102510006DF84E4BBA6A9A644C4BDA684B4B01210A
:102520000A43DA6000F0C8FA0100494A494B180032
:10253000FFF78AF8454B9B6C7B6200F0BDFA030005
:102540003B627B6A9A0F1F23FB181A707B6A042276
:10255000134003D17B6A082213404CD03B4B1B68CD
:102560001B0CDAB21E23FB180F210A401A70374BDE
:10257000BA6A9A64354A3B00D2691A60334A3B0012
:102580000433126A1A60314BDA68304B01210A4376
:10259000DA6005E02D4BDA682C4B01210A43DA6042
:1025A0002A4BDB6801221340F4D01F23FB181A7852
:1025B0000C23FB189200D258396A274B1800FFF7FA
:1025C00043F80023FB620CE03A00FB6AD3181B7847
:1025D0001A00224B1100180003F0CCF9FB6A0133FA
:1025E000FB621E23FB181B78FA6A9A42ECDB1C4B39
:1025F000180003F02FFA0B243B191800FFF7B3F96A
:10260000031E97D03B191B78652B93D1154A396A65
:10261000104B1800FFF718F80C4BDA680B4B012130
:102620008A43DA60C046BD460DB090BD706D04109F
:102630000F0000C0F06C0410146A0410F469041058
:10264000186D0410006A0410406B0410001000495B
:10265000586B04101C6D04102C6D0410246A0410B7
:10266000386D0410106C041080B588B000AFF860AD
:10267000B9607A603B600023FB610023BB6124E00A
:102680000023BB6118E0FB69FA6A5343BA69D318A7
:102690007B613A687B69D31879681800FDF7A0FD63
:1026A0000B001A00BB689A18F9687B69CB1812787E
:1026B0001A70BB690133BB61BA69FB6A9A42E2D303
:1026C0003A6BFB69D3180133FB61FA69BB6A9A4222
:1026D000D6D3C046C046BD4608B080BDF0B5B3B045
:1026E00004AF3C1D20606160A2603B600023B42207
:1026F000BA1813608A4BA422BA181360B323FB18CC
:1027000000221A70874B1800FEF79EFF3B1D5A6887
:102710003B1D9B6819001000FFF74AF90220FFF7E4
:102720002FF900F0C9F901007F4A804B1800FEF72D
:102730008BFF7F4BDB69AC22B9180B60BB181B68A1
:102740001F2B02D82023BA1813603B68002B15D02A
:10275000AC217B181B68203B3A689A4203D37B1854
:102760001B68203B3B60C046724BDB691B041B0CA3
:102770003A689A42F8D80520FFF702F96D4BDA69FA
:10278000A2217B181A806B4BDB691B0C9AB2A02329
:10279000FB185204520C1A807B181A88B4243B1977
:1027A0001B68D31AAC22BA1811681800FDF718FD7F
:1027B0000B001A00AA23FB181A809E23FB183A1953
:1027C00012681A803B1D5B881A003B1D1B885A4308
:1027D000D023FB181B88013353439822BA18136087
:1027E00048E0534B5B691E003B1D1B881C003B1DD2
:1027F0005B881D00D023FB181B88B422B918096818
:10280000AC203A18126810203818029301950094F1
:102810000B003100FFF728FF00F04EF901003B1DCF
:102820005B881A003B1D1B8853431C00B3257B1992
:102830001A781023F8182300FFF7D2F87B1900222A
:102840001A70B4243B191A6898257B191B68D31891
:10285000AC203A1811681800FDF7C2FC0B003A19B9
:1028600013607B191B689AB2AA217B187918098812
:102870008A1A1A80AA23FB181B889822BA18126891
:102880009A42AED92B4BDA6996203B181A80294B15
:10289000DB691B0C9AB294217B185204520C1A80EB
:1028A0007A18A0243B1912881B889A421AD0B325A3
:1028B0007B1901221A707B181A883B191B88013377
:1028C0001900A423FB181B680B409A420AD13A183E
:1028D0009E23FB1811881A88002391425B41DAB2CB
:1028E0007B191A7093243B191800FFF73CF8031E5C
:1028F00000D143E73B191B78652B00D03EE700F081
:10290000DBF801000C4A094B1800FEF79DFEC0469B
:102910000520FFF735F8C046BD462FB0F0BDC046D4
:10292000FF7F0000806D0410586B0410A46D04102C
:102930000004004900060049106C041080B588B0FE
:1029400002AF0020FEF734FA03007B610120FEF79E
:102950002FFA03003B613B1D04225A803B1D2022BD
:102960001A803B1D094A5A603B1D094A9A603B691F
:102970009BB279693A1D00930B0010685168926808
:10298000FFF7ACFEC046BD4606B080BDB46D041076
:10299000BC6D041080B588B002AF0020FEF708FAC5
:1029A00003007B610120FEF703FA03003B613B1D3E
:1029B00001225A803B1D20221A803B1D094A5A6081
:1029C0003B1D094A9A603B699BB279693A1D0093A5
:1029D0000B00106851689268FFF780FEC046BD4644
:1029E00006B080BDC06D0410CC6D041080B588B0F9
:1029F00002AF0020FEF7DCF903007B610120FEF747
:102A0000D7F903003B613B1D01225A803B1D202268
:102A10001A803B1D094A5A603B1D094A9A603B696E
:102A20009BB279693A1D00930B0010685168926857
:102A3000FFF754FEC046BD4606B080BDD46D0410FD
:102A4000E46D041080B586B002AF3B1D01225A80B0
:102A50003B1D01221A803B1D084A5A603B1D084A53
:102A60009A603A1D00230093002310685168926811
:102A7000FFF734FEC046BD4604B080BDEC6D0410C7
:102A8000046E041080B582B000AF7860C046BD46C9
:102A900002B080BD80B500AF064B1B685A1C054BC9
:102AA0001A60044B1B681800FFF7ECFFC046BD46D8
:102AB00080BDC04654050020B0B582B000AF154BB4
:102AC0001B68154B1B687B60124B9B683B60114B6E
:102AD0001A6880235B021340F3D17A6813005B010C
:102AE0009B1A9B009B18DB001D000A4B5A683B6831
:102AF000D41A0A4B1B680A491800FDF7EBFA0300C9
:102B000019002000FDF7E6FA0300EB181800BD4697
:102B100002B0B0BD10E000E054050020201D0020F0
:102B200040420F0080B500AF044B00221A60044BF6
:102B300000229A60C046BD4680BDC04654050020B4
:102B400010E000E080B582B000AF7860002000F0B7
:102B500075FD012000F072FD022000F06FFD00F015
:102B600005FD00F0A3FC054A054B1100180002F01A
:102B700001FF00231800BD4602B080BD0C6E04109A
:102B8000186E041080B500AFBFF34F8FC046044BE2
:102B9000044ADA60BFF34F8FC046C046FDE7C04627
:102BA00000ED00E00400FA0580B584B000AF786065
:102BB000074B196D064B7A680A431A65044B1B6D67
:102BC0007A681340FB60FB68C046BD4604B080BD18
:102BD0000000404880B582B000AF7860054B9A6D28
:102BE0007B68D943034B0A409A65C046BD4602B094
:102BF00080BDC0460000404880B586B000AF786018
:102C0000EFF31083BB60BB687B610123FB60FB6853
:102C100083F31088C0467B681B6820221A437B68B8
:102C20001A607B693B613B6983F31088C046C046EC
:102C3000BD4606B080BD000080B584B000AF00F096
:102C4000F0FF00F04FF800F084F800F0A2F83B002D
:102C5000180010231A00002103F0A8F83B00E1221D
:102C600052021A603B0000229A813B0000225A6007
:102C70003B0000225A813B0000221A813B001900D0
:102C8000002000F051FD144B1800FFF7B5FF0022A3
:102C90000121082001F0E4F8082001F0F6F80F4BBC
:102CA0001B68986800230222002102F0DDFE00204C
:102CB000FFF748FF0A4B1B78DBB2180000F0FAF868
:102CC000031EF7D0064B1B78DBB2002BF2D03E2060
:102CD00002F060FEEEE7C04600400041381D0020D3
:102CE000801B002090B589B000AF08243B19180064
:102CF00018231A00002103F059F83B00180008239C
:102D00001A00002103F052F83B1903221A603B1904
:102D1000802252025A603B191022DA603B191800D7
:102D200001F022FD031E01D000F03CFA3B0000221E
:102D30001A603B0000225A603B001021180001F08D
:102D400069FE031E01D000F02DFAC046BD4609B051
:102D500090BD80B586B000AF3B00180018231A0064
:102D6000002103F023F83B0002221A603B0080227E
:102D700052011A613B0004225A613B00180001F025
:102D8000B3FF031E01D000F00DFAC046BD4606B0E9
:102D900080BD80B500AF0420FFF706FF0820FFF7D5
:102DA00003FFC046BD4680BD80B582B000AF7860ED
:102DB0007B68180000F00AF8031E01D0012300E030
:102DC00000231800BD4602B080BD000080B582B06F
:102DD00000AF7860104B1A68104B1B689A4201D103
:102DE000002314E00D4B1B680D4AD25C7B681A70FF
:102DF0000A4B1B685A1C094B1A60084B1A6880233F
:102E0000DB009A4202D1054B00221A600123180010
:102E1000BD4602B080BDC046580900205C090020B4
:102E20005805002080B582B000AF0200FB1D1A706B
:102E30000B4B1B680B4AF91D0978D154084B1B68D2
:102E40005A1C074B1A60064B1A688023DB009A4213
:102E500002D1034B00221A60C046BD4602B080BDBD
:102E6000580900205805002090B585B000AF786063
:102E70000A00BB1C1A800E23FB1800221A800DE0EA
:102E80000E243B191B887A68D3181B781800FFF7AB
:102E9000C9FF3B191A883B1901321A800E23FA1810
:102EA000BB1C12881B889A42EAD3C046C046BD4666
:102EB00005B090BD80B582B000AF0200FB1D1A7056
:102EC000FB1D1B78002B4AD0294A8023D900294BAF
:102ED0001800FEF73FFC031E01D1002344E0264BFF
:102EE00000221A8005E0244B1B8801339AB2224B42
:102EF0001A80214B1B881A001E4B9B5C0A2B0DD09D
:102F00001D4B1B881A001B4B9B5C0D2B06D01A4BCC
:102F10001B881A00174B9B5C002BE4D1164B1B88B7
:102F20005A1C91B2144A11801A00124B0D21995467
:102F3000114B1B885A1C91B20F4A11801A000D4B7D
:102F40000A2199540A4B00221A800B4B1B88DAB2D3
:102F5000084B11001800FDF791FB030004E000216D
:102F60000020FDF78BFB03001800BD4602B080BDBA
:102F700060190020601500206219002080B500AFA4
:102F80000020FDF715FF0300DAB2064B1A70054B5F
:102F90001B78DBB2044A05490548FEF755FBC046DD
:102FA000BD4680BD801B002020730410746E041089
:102FB0002873041080B582B000AF0C4B7B600BE02F
:102FC0007B6819687B689A687B68DB68084802F050
:102FD000D1FC7B6810337B607B681B68002BEFD1D2
:102FE000C046C046BD4602B080BDC046881B00201A
:102FF0004473041080B500AF044B054A05490648E8
:10300000FEF722FBC046BD4680BDC0465473041087
:10301000607304109C6E04106873041080B500AFD8
:10302000034A044B11001800FEF70EFBFFF7AAFD40
:103030005C6E04108073041080B582B000AF002075
:10304000FDF7B6FE0200FB1D1A70FB1D1B780C4A33
:103050000C490D48FEF7F8FAFB1D1B78002B0AD02F
:10306000FB1D1B78022B04D18023DB001800FFF727
:10307000B1FD30BF00E0C046BD4602B080BDC046D5
:1030800020730410B87204102873041080B500AFC8
:10309000064A074B11001800FEF7D6FA8023DB0022
:1030A0001800FFF797FDC046BD4680BD00730410B1
:1030B0009473041090B587B002AF0020FDF778FE3E
:1030C0000200BB1D1A800120FDF772FE02007B1D6D
:1030D0001A70184B3B600023FB60174B1B68BB60EA
:1030E000154B1A68BB1D1B88D2183B68C02109010B
:1030F0008C4663449A4203D30123FB600023BB60E8
:10310000BC680E4A0E490F48FB6801930E4B0093B2
:103110002300FEF799FAFB68002B06D1064B1A68CC
:10312000BB1D1B88D218044B1A60C046BD4605B0B3
:1031300090BDC04660090020841B0020607304100D
:103140006C6F0410AC730410D073041080B582B09F
:1031500000AF0020FDF72CFE03007B60044A054B06
:1031600011001800FEF770FAC046BD4602B080BDDF
:103170008C6F04109473041080B500AF054B064AA1
:103180001A60064A064B11001800FEF75DFAC046A9
:10319000BD4680BD841B002060090020406F0410E4
:1031A0009473041080B500AFFEE780B500AF00F067
:1031B00003F8C046BD4680BD80B500AF0A4B19007C
:1031C000002001F051F8094B1900002001F086F8A9
:1031D000074B1900012001F081F83021012001F096
:1031E00043F8C046BD4680BD1FC80000E037000060
:1031F000CFFF000080B582B000AF78607B68DB69EC
:1032000020221340202B01D1012300E000231800CD
:10321000BD4602B080BD80B582B000AF78607B68EB
:103220005B6ADBB21800BD4602B080BD80B500AF5E
:10323000C046BD4680BD80B500AFFEE780B500AF9B
:10324000C046BD4680BD80B500AFC046BD4680BD0E
:1032500080B582B000AF0C4B1800FFF7CBFF030026
:10326000012B0CD1084B1800FFF7D5FF03001A0003
:10327000FB1D1A70FB1D01211800FFF7F5FDC0466C
:10328000BD4602B080BDC0460040004180B586B05A
:1032900000AFF860B9607A6000237B610AE000E06B
:1032A00000BF0100BB685A1CBA60CAB21A707B69C1
:1032B00001337B617A697B689A42F0DB7B68180096
:1032C000BD4606B080BD80B586B000AFF860B9607D
:1032D0007A6000237B6109E0BB685A1CBA601B78E6
:1032E000180000F061FA7B6901337B617A697B68C1
:1032F0009A42F1DB7B681800BD4606B080BD80B500
:1033000082B000AF786001235B421800BD4602B076
:1033100080BD80B582B000AF786039603B688022A4
:1033200092015A6000231800BD4602B080BD80B5EE
:1033300082B000AF786001231800BD4602B080BDA6
:1033400080B584B000AFF860B9607A6000231800DF
:10335000BD4604B080BD000080B586B000AF786087
:10336000144A154BD31A7B617B693B61134B1B6875
:10337000002B02D1114B124A1A60104B1A687B685D
:10338000D3183A699A4207D202F066FD03000C2274
:103390001A6001235B4209E0084B1B68FB60074B86
:1033A0001A687B68D218054B1A60FB681800BD4686
:1033B00006B080BD00800020000C000064190020D1
:1033C000881D00200C48854600F000FB002103E02A
:1033D0000A4B5B584350043109480A4B42189A4241
:1033E000F6D3094A02E0002313600432074B9A42E5
:1033F000F9D3FFF721FCFEE7008000208C76041053
:10340000501B0020881D002034000020501B00208D
:10341000FEE7000080B584B000AF7860074B196EFE
:10342000064B7A680A431A66044B1B6E7A6813408F
:10343000FB60FB68C046BD4604B080BD000040484C
:1034400080B582B000AF7860064B1B6E7A6813407F
:103450007A689A4201D1012300E000231800BD469A
:1034600002B080BD0000404880B582B000AF7860F7
:10347000044B196C034B7A680A431A64C046BD4674
:1034800002B080BD0000404880B582B000AF7860D7
:10349000054B1A6C7B68D943034B0A401A64C0463B
:1034A000BD4602B080BDC0460000404880B500AFB8
:1034B0000820FFF7C5FF031E08D10820FFF7D4FF3F
:1034C0000820FFF7E1FF0820FFF7A4FF0023180002
:1034D000BD4680BD80B584B000AF7860074B196EE3
:1034E000064B7A680A431A66044B1B6E7A681340CF
:1034F000FB60FB68C046BD4604B080BD000040488C
:1035000080B582B000AF7860064B1B6E7A681340BE
:103510007A689A4201D1012300E000231800BD46D9
:1035200002B080BD0000404880B582B000AF786036
:10353000044B196C034B7A680A431A64C046BD46B3
:1035400002B080BD0000404880B582B000AF786016
:10355000054B1A6C7B68D943034B0A401A64C0467A
:10356000BD4602B080BDC0460000404880B500AFF7
:103570000120FFF7C5FF031E08D10120FFF7D4FF8C
:103580000120FFF7E1FF0120FFF7A4FF002318004F
:10359000BD4680BD80B500AF054B1B6810221340AF
:1035A000102B01D1012300E000231800BD4680BD8F
:1035B0000000504880B582B000AF786039607B6809
:1035C00004331A683B68D9437B6804330A401A60A5
:1035D0007B6819687B683A680A431A60C046BD4632
:1035E00002B080BD80B584B000AF7860074B196D24
:1035F000064B7A680A431A65044B1B6D7A681340C0
:10360000FB60FB68C046BD4604B080BD000040487A
:1036100080B584B000AF7860074B996D064B7A682F
:103620000A439A65044B9B6D7A681340FB60FB6804
:10363000C046BD4604B080BD0000404890B589B08A
:1036400000AF0200FB1D1A70FB1D1B78002B03D17D
:103650000420FFF7C7FF0AE0FB1D1B78012B03D1F5
:103660000820FFF7BFFF02E00820FFF7BBFFFB1DAC
:103670001A78284B5200D35A1A000C243B191A60AE
:103680003B1901225A603B1901229A603B19022220
:10369000DA60FB1D1A78204B9200D3583A191100BA
:1036A000180000F00FFCFFF775FF031E1FD0FB1D75
:1036B0001A78194B9200D2589023DB059A4206D112
:1036C0003B191B68154A19001000FFF773FFFB1D1B
:1036D0001A78114B9200D358114A934207D10C2308
:1036E000FB181B680F4A19001000FFF763FFFB1D52
:1036F0001A78094B9200D058FB1D1A78054B5200DE
:10370000D35A0122190000F092FD00231800BD4693
:1037100009B090BD081D0020101D00202000504859
:10372000000010482800504880B584B000AF020067
:103730003960FB1D1A700023FB603B68002B03D12E
:1037400002235B42FB6026E0FB1D1978FB1D1A7803
:10375000134B8900C958134B94204243D150FB1D91
:103760001B7894225A430F4BD318180000F068F8C6
:10377000FB68002B0FD1FB1D1B7894225A43094B89
:10378000D3183A681100180000F028F8031E02D080
:1037900004235B42FB60FB681800BD4604B080BD9B
:1037A0001C1D00206819002080B582B000AF786031
:1037B000084B1B781A0094235A43074BD018FA235E
:1037C0009B00391D012201F0C7FB7B681800BD4634
:1037D00002B080BDFC1900206819002080B582B0BD
:1037E00000AF786039603B681A687B685A603B6854
:1037F0005A687B689A603B681B891A007B68DA60AC
:103800003B685B891A007B681A617B680C225A61ED
:103810003B689B891A007B689A617B688022120250
:10382000DA617B6800221A627B6800225A627B6838
:10383000180001F033FB03001800BD4602B080BD44
:1038400090B589B000AF78600420FFF7CBFE04206C
:10385000FFF7C8FE8023DB001800FFF7D9FE0C2419
:103860003B1902221A603B1902225A603B190222BC
:10387000DA603B1901229A603B1901221A613A1958
:103880009023DB051100180000F01CFBFFF782FEFF
:10389000031E06D03B191B680B4A19001000FFF7E6
:1038A00089FE0C217B18802212021A607B180122EB
:1038B0001A617A189023DB051100180000F002FB52
:1038C000C046BD4609B090BD2000504890B583B0B9
:1038D00000AF02003960FB1D1A70FB1D1B787F2BA7
:1038E00028D82F4AFB1D1B785BB29B08C0339B0076
:1038F0009B58FA1D1278110003220A40D200FF21C2
:1039000091400A00D2431A4011003B689B01FF22FC
:103910001A40FB1D1B78180003230340DB009A406C
:103920001F48FB1D1B785BB29B080A43C0339B00FA
:103930001A5031E01B4AFB1D1B7819000F230B4066
:10394000083B9B0806339B00D31804331B68FA1D01
:103950001278110003220A40D200FF2191400A0090
:10396000D2431A4011003B689B01FF221A40FB1D05
:103970001B78180003230340DB009A400948FB1D15
:103980001B781C000F232340083B9B080A43063387
:103990009B00C31804331A60C046BD4603B090BDF7
:1039A00000E100E000ED00E080B500AFBFF34F8F15
:1039B000C046044B044ADA60BFF34F8FC046C0468E
:1039C000FDE7C04600ED00E00400FA0590B587B0C1
:1039D00000AF604A9423D358002B12D15E4B1B6971
:1039E000002B07D15C4B9B6B002B03D15A4B9B6C7C
:1039F000002B06D0594B01229A6000F00DF9FFF719
:103A0000D3FF574B574A9A60554B9A68534B1A61EC
:103A1000514B5A68504B20210A435A604E4B5A680A
:103A20004D4B51490A405A60C0464B4B5B690422DA
:103A30001340042BF9D1484BDB69302293431A0021
:103A4000454B20210A43DA61434BDA69424B47492F
:103A50000A40DA61404BDA693F4B802149000A4352
:103A6000DA61434B1B68434A934255D021233B61A3
:103A70000823FB600323BB6003237B60354BDB68BB
:103A80003D4A134019003B691A06324B0A43DA607B
:103A9000304BDA682F4B802109040A43DA602D4B42
:103AA000DB681E2293431900FB685A00294B0A4326
:103AB000DA60284BDA68274B01210A43DA60264A8C
:103AC0009423D3582D4A1A40BB689901F0239B00D8
:103AD0000B402149134394228B501F4A9423D358FF
:103AE0001D492022134394228B501B4A9423D35800
:103AF000234A1A407B68D902E0239B010B401649F8
:103B0000134394228B50144A9423D3581249802291
:103B1000D200134394228B501723FB1800221A70F3
:103B20000DE017243B191B785BB203211800FFF747
:103B3000CDFE21007B181A787B1801321A701723EA
:103B4000FB181B781F2BECD962B6C046C046BD4699
:103B500007B090BD0000404800005048040000201D
:103B600000ED00E000000410FFFEFFFFFFFBFFFF81
:103B7000F81E0010CCECBCFCFFFFFFC03FFCFFFFB9
:103B8000FFC7FFFF80B582B000AF1E4B9B685B088C
:103B9000DAB2FB1D01210A401A701A4B9B681B0AFE
:103BA000DAB2BB1D07210A401A70FB1D1B78002BDF
:103BB0001DD0BB1D1B78002B02D0012B04D007E0C9
:103BC000114B124A1A6019E00F4B114A1A6015E0A6
:103BD000BB1D1B78023B03229A40130019000B48BF
:103BE000FCF778FA03001A00074B1A6006E0BB1DC9
:103BF0001B78084ADA40044B1A60C046C046BD46EE
:103C000002B080BD00004048201D0020006CDC0296
:103C100000366E010090D00380B500AFC046BD46AF
:103C200080BD80B582B000AFFB1D00221A7003205A
:103C300000F00EF8031E03D0FB1D01221A7001E0F4
:103C4000FFF7B3FAFB1D1B781800BD4602B080BD1C
:103C500090B585B000AF78600F23FB1800221A7072
:103C60001D4B1B78002B2CD000F076FF04001A4B64
:103C70001B781900FA239800FCF72CFA03001900AE
:103C80002000FCF727FA0300180000F00EF9031ECD
:103C900012D17B68032B0AD8796801235B4200228A
:103CA000180000F0DDF80D4B7A681A600DE00F2364
:103CB000FB1801221A7008E00F23FB1801221A706A
:103CC00003E00F23FB1801221A700F23FB181B7847
:103CD0001800BD4605B090BD281D0020241D002001
:103CE00080B500AF024B1B681800BD4680BDC046C2
:103CF000001A002080B500AF024B1B681800BD46BB
:103D000080BDC046241D002080B582B000AF0200F7
:103D1000FB1D1A70FB1D1B787F2B09D8FB1D1B7820
:103D20001A001F231A40044B012191400A001A6017
:103D3000C046BD4602B080BD00E100E090B583B052
:103D400000AF02003960FB1D1A70FB1D1B787F2B32
:103D500028D82F4AFB1D1B785BB29B08C0339B0001
:103D60009B58FA1D1278110003220A40D200FF214D
:103D700091400A00D2431A4011003B689B01FF2288
:103D80001A40FB1D1B78180003230340DB009A40F8
:103D90001F48FB1D1B785BB29B080A43C0339B0086
:103DA0001A5031E01B4AFB1D1B7819000F230B40F2
:103DB000083B9B0806339B00D31804331B68FA1D8D
:103DC0001278110003220A40D200FF2191400A001C
:103DD000D2431A4011003B689B01FF221A40FB1D91
:103DE0001B78180003230340DB009A400948FB1DA1
:103DF0001B781C000F232340083B9B080A43063313
:103E00009B00C31804331A60C046BD4603B090BD82
:103E100000E100E000ED00E080B582B000AF786026
:103E20007B685A1E80235B049A4201D3012310E071
:103E30000A4B7A68013A5A6001235B420321180059
:103E4000FFF77CFF054B00229A60044B07221A60A3
:103E500000231800BD4602B080BDC04610E000E05F
:103E600080B584B000AFB9607A600F217B18021C66
:103E70001A70BA687B181B785BB211001800FFF744
:103E80005DFFC046BD4604B080BD80B582B000AFC6
:103E90000200FB1D1A70FB1D1B785BB21800FFF7B8
:103EA00033FFC046BD4602B080BD80B582B000AFD2
:103EB00078607B681800FFF7AFFF03001800BD466D
:103EC00002B080BD80B586B000AF78603960002355
:103ED0007B61A0E13B681B6801217A6991400A007F
:103EE0001340FB60FB68002B00D191E13B685B68ED
:103EF00003221340012B05D03B685B68032213406B
:103F0000022B30D17B689B683B617B695B0003229D
:103F10009A401300DA433B6913403B613B68DA681F
:103F20007B695B009A4013003A6913433B617B68ED
:103F30003A699A607B685B683B6101227B699A40C1
:103F40001300DA433B6913403B613B685B681B0924
:103F500001221A407B699A4013003A6913433B617E
:103F60007B683A695A603B685B6803221340032B05
:103F700018D07B68DB683B617B695B0003229A4059
:103F80001300DA433B6913403B613B689A687B69E5
:103F90005B009A4013003A6913433B617B683A69BE
:103FA000DA600EE07B68DB683B617B695B000322C3
:103FB0009A401300DA433B6913403B617B683A69DE
:103FC000DA603B685B6803221340022B23D17B69D4
:103FD000DA087B6808329200D3583B617B6907227C
:103FE00013409B000F229A401300DA433B691340B1
:103FF0003B613B681A697B6907210B409B009A4033
:1040000013003A6913433B617B69DA087B68083225
:1040100092003969D1507B681B683B617B695B000A
:1040200003229A401300DA433B6913403B613B682B
:104030005B6803221A407B695B009A4013003A696F
:1040400013433B617B683A691A603B685A68C02336
:104050009B02134000D1DBE03B685A688023DB02FF
:10406000134030D08023DB05DB683B617A68902306
:10407000DB059A4211D101227B699A401300DB4390
:104080001A003B6913403B6101227B699A4013008F
:104090001A003B6913433B6111E001227B699A409E
:1040A00013001B04DB431A003B6913403B610122F0
:1040B0007B699A4013001B043A6913433B618023D8
:1040C000DB053A69DA603B685A6880235B0313407A
:1040D00030D08023DB051B693B617A689023DB05C8
:1040E0009A4211D101227B699A401300DB431A00E6
:1040F0003B6913403B6101227B699A4013001A001F
:104100003B6913433B6111E001227B699A40130034
:104110001B04DB431A003B6913403B6101227B69AE
:104120009A4013001B043A6913433B618023DB056B
:104130003A691A613B685A688023DB03134030D028
:104140008023DB055B693B617A689023DB059A423B
:1041500011D101227B699A401300DB431A003B69AD
:1041600013403B6101227B699A4013001A003B69AE
:1041700013433B6111E001227B699A4013001B0449
:10418000DB431A003B6913403B6101227B699A4083
:1041900013001B043A6913433B618023DB053A6932
:1041A0005A613B685A6880235B02134030D08023F9
:1041B000DB059B693B617A689023DB059A4211D14C
:1041C00001227B699A401300DB431A003B691340CC
:1041D0003B6101227B699A4013001A003B6913433B
:1041E0003B6111E001227B699A4013001B04DB4311
:1041F0001A003B6913403B6101227B699A4013001E
:104200001B043A6913433B618023DB053A699A61D9
:104210007B6901337B613B681A687B69DA40131E56
:1042200000D057E6C046C046BD4606B080BD80B54A
:1042300082B000AF786008001100BB1C021C1A801D
:104240007B1C0A1C1A707B1C1B78002B04D0BB1C27
:104250001A887B689A6103E0BB1C1A887B689A62A3
:10426000C046BD4602B080BD80B584B000AF786066
:1042700039600F23FB1800221A707B68002B03D0D3
:104280007B68012B0ED01BE0134B196A124B3A6866
:104290000A431A62104B5A6A3B68D9430E4B0A40D4
:1042A0005A6212E00C4B996A0B4B3A680A439A62C5
:1042B000094BDA6A3B68D943074B0A40DA6204E0EB
:1042C0000F23FB1801221A70C0460F23FB181B781E
:1042D0001800BD4604B080BD0000504880B584B0D1
:1042E00000AF786039600F23FB1800221A707B68DA
:1042F000002B03D07B68012B0ED01BE0134B596AB7
:10430000124B3A680A435A62104B1A6A3B68D94307
:104310000E4B0A401A6212E00C4BD96A0B4B3A68FA
:104320000A43DA62094B9A6A3B68D943074B0A4051
:104330009A6204E00F23FB1801221A70C0460F2373
:10434000FB181B781800BD4604B080BD0000504823
:1043500080B582B000AF7860084B9A6A7B68D94319
:10436000064B0A409A62054BDA6A7B68D943034BD5
:104370000A40DA62C046BD4602B080BD0000504827
:1043800080B500AF044B1A68034B802149020A43F1
:104390001A60C046BD4680BD0000404880B500AFF1
:1043A000044B1A68034B04490A401A60C046BD46D4
:1043B00080BDC04600004048FFFFFEFF80B500AF53
:1043C000074B1A6880239B021A4080239B029A4263
:1043D00001D1012300E000231800BD4680BDC04686
:1043E0000000404880B582B000AF78600B4A982347
:1043F000D3580B4A1A407B681B0208491343982282
:104400008B50064A9823D35804498022134398229C
:104410008B50C046BD4602B080BDC046000040483B
:10442000FFC0FFFF80B582B000AF7860084A9823D4
:10443000D3587F2293431A007B687F210B400449A5
:10444000134398228B50C046BD4602B080BDC04683
:104450000000404880B582B000AF7860084A9823D9
:10446000D358084A1A407B689B031B041B0C044961
:10447000134398228B50C046BD4602B080BDC04653
:1044800000004048FF3FFFFF80B582B000AF78607A
:10449000084A9823D358084A1A407B681904E02335
:1044A000DB020B400349134398228B50C046BD46A4
:1044B00002B080BD00004048FFFFF8FF80B500AFAC
:1044C000074B9A68064B04218A439A60044B9A680A
:1044D000034B02218A439A60C046BD4680BDC04658
:1044E0000000404880B500AF074B9A68064B022198
:1044F0000A439A60044B9A68034B04210A439A606A
:10450000C046BD4680BDC0460000404880B500AFF3
:10451000074B1A688023DB001A408023DB009A4295
:1045200001D1012300E000231800BD4680BDC04634
:104530000000404880B582B000AFC0460F4B1A68FB
:1045400080239B021340F9D00C4B9A680B4B02213D
:104550000A439A6000237B6003E0C0467B68013316
:104560007B607B68052BF8DD044B9A68034B0421C4
:104570000A439A60C046BD4602B080BD0000404874
:1045800080B582B000AF7860064B9B68064A134046
:104590001900044B7A680A439A60C046BD4602B0CF
:1045A00080BDC04600004048FF7FFEFF80B500AFE1
:1045B000044B1A68034B10210A431A60C046BD46DB
:1045C00080BDC0460000404880B500AF044B1A686B
:1045D000034B10218A431A60C046BD4680BDC046C9
:1045E0000000404880B500AF054B1B6820221340F7
:1045F000202B01D1012300E000231800BD4680BD1F
:104600000000404880B500AF044B1A68034B4021BE
:104610000A431A60C046BD4680BDC04600004048FF
:1046200080B500AF044B1A68034B40218A431A60DF
:10463000C046BD4680BDC0460000404880B500AFC2
:10464000054B1B6840221340402B01D1012300E0A1
:1046500000231800BD4680BD0000404880B582B0F0
:1046600000AF7860064BDB68602293431900044B6F
:104670007A680A43DA60C046BD4602B080BDC046D3
:104680000000404880B500AF044B1A68034B04217A
:104690000A431A60C046BD4680BDC046000040487F
:1046A00080B500AF044B1A68034B04218A431A609B
:1046B000C046BD4680BDC0460000404880B500AF42
:1046C000054B1B6808221340082B01D1012300E091
:1046D00000231800BD4680BD0000404880B500AFF3
:1046E000044B1A68034B802189010A431A60C046B3
:1046F000BD4680BD0000404880B500AF044B1A683D
:10470000034B04490A401A60C046BD4680BDC046FE
:1047100000004048FFDFFFFF80B500AF074B1A687D
:104720008023DB011A408023DB019A4201D101235F
:1047300000E000231800BD4680BDC0460000404890
:1047400080B582B000AF7860064B9B68E02293434F
:104750001900044B7A680A439A60C046BD4602B00D
:1047600080BDC0460000404880B584B000AF78608E
:104770007B68002B01D1012346E17B681B68102276
:10478000134033D07B689B68002B02D1FFF796FE65
:1047900001E0FFF7A7FE7B689B68042B13D1FFF7AE
:1047A0009FFA0300FB6008E0FFF79AFA0200FB683B
:1047B000D31A642B01D9032326E1FFF7A7FE0300D8
:1047C000012BF1D012E0FFF78BFA0300FB6008E049
:1047D000FFF786FA0200FB68D31A642B01D9032382
:1047E00012E1FFF793FE0300012BF1D17B681B68F8
:1047F000012213403FD02020FFF7F4FD0020FFF7F7
:1048000029FE0020FFF740FE2820FFF70BFE7B6803
:104810005A6880235B029A4202D1FFF7B1FD01E0A2
:10482000FFF7BCFD7B685B68002B12D0FFF758FADE
:104830000300FB6008E0FFF753FA0200FB68D31A9D
:10484000642B01D90323DFE0FFF7B8FD031EF2D08C
:1048500011E0FFF745FA0300FB6008E0FFF740FABC
:104860000200FB68D31A642B01D90323CCE0FFF7C5
:10487000A5FD031EF2D17B681B68042213403AD0C9
:104880007B681B69002B22D0FFF70AFFC046FFF7A9
:1048900015FF031EFBD1FFF797FE80235B02180074
:1048A000FFF76EFEFFF7EEFEFFF71AFA0300FB605C
:1048B00008E0FFF715FA0200FB68D31A022B01D9B2
:1048C0000323A1E0FFF7FAFE031EF2D013E0FFF787
:1048D000E7FEFFF705FA0300FB6008E0FFF700FAC8
:1048E0000200FB68D31A022B01D903238CE0FFF7E7
:1048F000E5FE031EF2D17B681B680222134049D0FB
:10490000FFF7CEFEFFF760FEC046FFF76BFE031E0B
:10491000FBD1C0239B011800FFF71AFD80231B0267
:104920001800FFF72DFE2020FFF798FE7B68DB685C
:10493000102B02D1FFF73AFE01E0FFF745FE7B683E
:10494000DB68002B13D0FFF7CBF90300FB6009E015
:10495000FFF7C6F90200FB68D31A2D4A934201D92A
:10496000032351E0FFF73EFE031EF1D012E0FFF7F4
:10497000B7F90300FB6009E0FFF7B2F90200FB683A
:10498000D31A234A934201D903233DE0FFF72AFEBD
:10499000031EF1D17B681B680822134033D07B686B
:1049A0005B69402B02D1FFF72DFE01E0FFF738FED7
:1049B0007B685B69002B13D0FFF792F90300FB6063
:1049C00009E0FFF78DF90200FB68D31A104A934201
:1049D00001D9032318E0FFF731FE031EF1D012E0E6
:1049E000FFF77EF90300FB6009E0FFF779F90200A9
:1049F000FB68D31A064A934201D9032304E0FFF768
:104A00001DFE031EF1D100231800BD4604B080BD79
:104A10008813000080B584B000AF786039607B688F
:104A2000002B01D101238EE0494B5B683022934378
:104A30001900474B3A680A435A607B681B68022B8F
:104A40000ED1FFF73BFDFFF761FD031E01D10123EE
:104A500079E0FFF751FE7B685B681800FFF770FE96
:104A60007B681B68002B24D1FFF750FD031E01D18A
:104A7000012368E0FFF7A2FC031E01D1012362E0DD
:104A8000FFF72CFEFFF72CF90300FB6008E0FFF7AF
:104A900027F90200FB68D31A022B01D9032352E045
:104AA000FFF73AFE031EF2D07B685B681800FFF741
:104AB00047FE7B681B68012B17D1FFF73BFDFFF713
:104AC00025FD031E01D001233DE0FFF777FC031E07
:104AD00001D1012337E01F4B9B68E022934319006B
:104AE0007B685A681B4B0A439A60194B5B683022FB
:104AF00013403A689A421DD0154B5B6830229343AD
:104B00001900134B3A680A435A60FFF7E9F80300AB
:104B1000FB6008E0FFF7E4F80200FB68D31A022B01
:104B200001D903230FE00A4B5B68302213403A6837
:104B30009A42EFD1FFF726F8FFF7DCF803001800E0
:104B4000FFF786F803001800BD4604B080BDC046DC
:104B5000001000400000404880B500AF024B1B68C9
:104B60001800BD4680BDC046201D002080B500AFA6
:104B7000054B9B6808221340082B01D1012300E05C
:104B800000231800BD4680BD0000404880B582B0BB
:104B900000AF7860064B9B68064A13401900044B2F
:104BA0007A680A439A60C046BD4602B080BDC046DE
:104BB00000004048FF7FFEFF80B582B000AF786004
:104BC000064B9B68064A13401900044B7A680A4357
:104BD0009A60C046BD4602B080BDC0460000404855
:104BE000FFEFFFFF80B500AF034B9A6880235B01A6
:104BF00013401800BD4680BD0000404880B500AF9E
:104C0000054B1B6901221340012B01D1012300E058
:104C100000231800BD4680BD0000404880B582B02A
:104C200000AF7860064B1B69064A134019007B6889
:104C30005A00034B0A431A61C046BD4602B080BD0C
:104C4000000040480100FFFF80B500AF034B1B6927
:104C50005B085B045B0C1800BD4680BD000040484B
:104C600080B582B000AF7860064B9B68064A13405F
:104C70001900044B7A680A439A60C046BD4602B0E8
:104C800080BDC04600004048FFDFFFFF80B500AF99
:104C9000034B9A6880239B0113401800BD4680BDDA
:104CA0000000404880B582B000AF7860064B9B683A
:104CB000064A13401900044B7A680A439A60C046BA
:104CC000BD4602B080BDC04600004048FFFF3FFF28
:104CD00080B500AF034B9A68C0231B041340180033
:104CE000BD4680BD0000404880B582B000AF78600E
:104CF0007B681B680222134009D07B681B6918007F
:104D0000FFF75AFF7B685B691800FFF787FF7B6836
:104D10001B680822134004D07B685B681800FFF70B
:104D2000C1FF7B681B681022134004D07B68DB68DE
:104D30001800FFF795FF7B681B682022134004D002
:104D40007B689B681800FFF721FF00231800BD4611
:104D500002B080BD80B586B000AF786000237B6173
:104D60007B68102B00D16BE07B68102B00D97DE0B5
:104D70007B68082B3AD07B68082B00D976E07B68EB
:104D8000012B03D07B68022B03D06FE03B4B7B6190
:104D90006FE0FFF733FF031E18D0FFF7E7FE031E97
:104DA00002D0374B7B6101E0364B7B61FFF74CFF54
:104DB00003003B613B69072B01D808233B6139693C
:104DC0007869FBF787F903007B6152E0FFF70AFF80
:104DD000031E04D080225201934203D049E02A4BA3
:104DE0007B6102E0294B7B61C04642E0FFF770FF28
:104DF0000300FB60FA6880231B049A421AD0FA6809
:104E000080231B049A4233D8FB68002B05D0FA6834
:104E10008023DB039A4203D02AE0184B7B610EE02B
:104E2000FFF7A4FE031E02D0194B7B6107E0194B6C
:104E30007B6104E0FFF790FE03007B61C04617E052
:104E4000FFF724FF020080239B019A4203D18023B5
:104E50001B027B6109E0FFF789FE031E02D0074BAE
:104E60007B6101E00C4B7B61C04602E0C04600E084
:104E7000C0467B691800BD4606B080BD0024F40022
:104E8000006CDC020090D00300127A0000093D00A3
:104E900000366E010048E801001BB70080B582B003
:104EA00000AF78607B68002B01D1012346E07B686E
:104EB00088229B58002B07D17B68842200219954BB
:104EC0007B68180000F040F87B6888222421995004
:104ED0007B681B681A687B681B6801218A431A601B
:104EE0007B689B6A002B03D07B68180000F04AFAAD
:104EF0007B68180000F0DEF80300012B01D10123CC
:104F00001CE07B681B685A687B681B680D490A4077
:104F10005A607B681B689A687B681B682A218A43F1
:104F20009A607B681B681A687B681B6801210A43CA
:104F30001A607B68180000F0D9FA03001800BD461B
:104F400002B080BDFFB7FFFF80B582B000AF7860D0
:104F5000C046BD4602B080BD80B58AB002AFF860E1
:104F6000B9603B60BB1D1A80FB6888229B58202BD0
:104F700000D09AE0BB68002B03D0BB1D1B88002B20
:104F800001D1012392E0FB689A6880235B019A4279
:104F900009D1FB681B69002B05D1BB6801221340B6
:104FA00001D0012382E0FB68902200219950FB6828
:104FB000882221219950FEF793FE03007B61FB6854
:104FC000BA1D542112885A52FB68BA1D5621128804
:104FD0005A52FB689A6880235B019A4208D1FB68A9
:104FE0001B69002B04D10023FB61BB68BB6103E09C
:104FF000BB68FB610023BB613AE07A69F8683B68F3
:10500000009313000022802100F01AFB031E05D03C
:10501000FB68882220219950032347E0FB69002B7D
:105020000BD1BB691B881A00FB681B68D205D20D27
:105030009A62BB690233BB6107E0FB691A78FB68BF
:105040001B689A62FB690133FB61FB6888229B58ED
:1050500021221340212B09D1FB6856229B5A9BB277
:10506000013B99B2FB685622995201E001231DE0F1
:10507000FB6856229B5A9BB2002BBED17A69F86816
:105080003B68009313000022402100F0D9FA031E70
:1050900005D0FB68882220219950032306E0FB6895
:1050A000882220219950002300E002231800BD46E9
:1050B00008B080BDB0B590B000AF78621B2320224D
:1050C0009B18DB1900221A707B6A9A687B6A1B693D
:1050D0001A437B6A5B691A437B6ADB691343FB6390
:1050E0007B6A1B681B68A14A134019007B6A1A6817
:1050F000FB6B0B4313607B6A1B685B689C4A134025
:1051000018007B6AD9687B6A1A6803000B435360F6
:105110007B6A9B69FB637B6A1B68964A934204D057
:105120007B6A1B6AFA6B1343FB637B6A1B689B6891
:10513000914A134019007B6A1A68FB6B0B4393601A
:105140007B6A1B68DB6A0F22934318007B6A596AEB
:105150007B6A1A6803000B43D3627B6A1B68854A2B
:1051600093426DD11020FFF7F5FD03007B637B6B4D
:10517000002B00D1E3E07B6A5A6A804B5200D35A7D
:105180001900786BFAF7A6FF0300BB627B6A5A68C6
:1051900013005B009B18BA6A9A4205D37B6A5B686E
:1051A0001B03BA6A9A4206D91B2320229B18DB19DB
:1051B00001221A70C3E07B6BBB610023FB617B6A39
:1051C0005A6A6E4B5200D35A3B6100237B613A69A5
:1051D0007B69B869F969FBF709F802000B00110E49
:1051E0001D020D4314027B6A5B685B08BB600023F1
:1051F000FB60B868F968001969417B6A5B683B60CD
:1052000000237B603A687B68FAF7F0FF02000B002E
:1052100013003B633A6BC0239B009A4209D33A6B5D
:1052200080235B039A4204D27B6A1B683A6BDA6084
:1052300085E01B2320229B18DB1901221A707EE0D7
:105240007B6ADA6980231B029A4248D14C4B7B630C
:105250007B6B002B00D172E07B6A5A6A474B52008D
:10526000D35A1900786BFAF735FF03005A007B6AAE
:105270005B685B08D2187B6A5B6819001000FAF75C
:1052800029FF03003B633B6B0F2B21D93A6B802333
:105290005B029A421CD23B6B9AB20E202024031967
:1052A000DB190F218A431A803B6B5B089BB20722F4
:1052B000134099B20319DB190219D21912880A4353
:1052C0001A807B6A1B680219D2191288DA6036E0EC
:1052D0001B2320229B18DB1901221A702FE0284B78
:1052E0007B637B6B002B2AD07B6A5A6A234B52006C
:1052F000D35A1900786BFAF7EDFE03001A007B6AA7
:105300005B685B08D2187B6A5B6819001000FAF7CB
:10531000E1FE03003B633B6B0F2B0AD93A6B802302
:105320005B029A4205D23B6B9AB27B6A1B68DA60D9
:1053300005E01B2320229B18DB1901221A707B6ACF
:105340006A22012199527B6A6822012199527B6A63
:1053500000225A677B6A00229A671B2320229B182F
:10536000DB191B781800BD4610B0B0BDF369FFCF44
:10537000FFCFFFFF00500041FFF4FF113076041013
:105380000024F40080B582B000AF78607B689B6A2F
:10539000082213400BD07B681B685B684A4A1340A5
:1053A00019007B689A6B7B681B680A435A607B68AC
:1053B0009B6A012213400BD07B681B685B68434AE1
:1053C000134019007B68DA6A7B681B680A435A60DD
:1053D0007B689B6A022213400BD07B681B685B686A
:1053E0003B4A134019007B681A6B7B681B680A43B1
:1053F0005A607B689B6A042213400BD07B681B6851
:105400005B68344A134019007B685A6B7B681B68E1
:105410000A435A607B689B6A102213400BD07B685A
:105420001B689B682C4A134019007B68DA6B7B6809
:105430001B680A439A607B689B6A202213400BD04A
:105440007B681B689B68254A134019007B681A6CAF
:105450007B681B680A439A607B689B6A4022134002
:105460001DD07B681B685B681D4A134019007B6870
:105470005A6C7B681B680A435A607B685A6C8023AD
:105480005B039A420BD17B681B685B68154A13402B
:1054900019007B689A6C7B681B680A435A607B68BA
:1054A0009B6A802213400BD07B681B685B680E4AA6
:1054B000134019007B68DA6C7B681B680A435A60EA
:1054C000C046BD4602B080BDFF7FFFFFFFFFFDFF6E
:1054D000FFFFFEFFFFFFFBFFFFEFFFFFFFDFFFFF11
:1054E000FFFFEFFFFFFF9FFFFFFFF7FF80B592B0C9
:1054F00002AF78607B68902200219950FEF7F0FBA4
:105500000300FB637B681B681B6808221340082BA1
:105510002DD1FB6B802291037868474A00920022CC
:1055200000F08EF8031E22D0EFF310837B627B6ABB
:10553000BB630123BB62BB6A83F31088C0467B68F0
:105540001B681A687B681B6880218A431A60BB6BE2
:10555000FB62FB6A83F31088C0467B6888222021A7
:1055600099507B68842200219954032360E07B6872
:105570001B681B6804221340042B46D1FB6B80225E
:10558000D10378682C4A0092002200F059F8031EDB
:105590003BD0EFF31083FB60FB687B6301233B612F
:1055A0003B6983F31088C0467B681B681A687B6878
:1055B0001B6822490A401A607B6B7B617B6983F31D
:1055C0001088C046EFF31083BB61BB693B630123C6
:1055D000FB61FB6983F31088C0467B681B689A688F
:1055E0007B681B6801218A439A603B6B3B623B6A84
:1055F00083F31088C0467B688C22202199507B68F9
:10560000842200219954032312E07B688822202100
:1056100099507B688C22202199507B680022DA66A1
:105620007B6800221A677B6884220021995400233A
:105630001800BD4610B080BDFFFFFF01DFFEFFFF79
:1056400080B584B000AFF860B9603B60FB1D1A7094
:1056500051E0BB6901334ED0FEF742FB02003B68CC
:10566000D31ABA699A4202D3BB69002B01D1032332
:1056700051E0FB681B681B68042213403BD0BB68E9
:10568000802B38D0BB68402B35D0FB681B68DB69AA
:1056900008221340082B11D1FB681B6808221A62EC
:1056A000FB68180000F03CF8FB6890220821995034
:1056B000FB6884220021995401232CE0FB681B68BD
:1056C000DA6980231B011A4080231B019A4212D100
:1056D000FB681B68802212011A62FB68180000F048
:1056E0001FF8FB68902220219950FB68842200213A
:1056F000995403230FE0FB681B68DB69BA68134009
:10570000BA68D31A5A425341DBB21A00FB1D1B7808
:105710009A429ED000231800BD4604B080BD000010
:1057200080B58EB000AF7860EFF310837B617B694A
:105730007B630123BB61BB6983F31088C0467B6830
:105740001B681A687B681B6826490A401A607B6BD5
:10575000FB61FB6983F31088C046EFF310833B6263
:105760003B6A3B6301237B627B6A83F31088C046FC
:105770007B681B689A687B681B681B490A409A60B3
:105780003B6BBB62BB6A83F31088C0467B68DB6EF1
:10579000012B18D1EFF31083BB60BB68FB620123C0
:1057A000FB60FB6883F31088C0467B681B681A683F
:1057B0007B681B6810218A431A60FB6A3B613B6966
:1057C00083F31088C0467B688C22202199507B6827
:1057D0000022DA667B6800225A67C046BD460EB0DA
:1057E00080BDC046DFFEFFFFFEFFFFEF002310B5C8
:1057F000040003604360836081814366C28103616A
:1058000043618361190008225C3000F0CFFA0B4B32
:10581000246263620A4BA3620A4BE3620A4B23636E
:105820000A4B9C4205D00A4B9C4202D0094B9C4239
:1058300003D12000583000F015FB10BDD55B0410DB
:10584000FD5B0410355C0410615C0410041A002038
:105850006C1A0020D41A002010B5034A03490448EA
:1058600000F06CF810BDC0462C1D00201567041018
:105870003C1D002041680B4B10B50400994201D03B
:1058800000F048FFA168084B994202D0200000F0C8
:1058900041FFE168054B994202D0200000F03AFF39
:1058A00010BDC046041A00206C1A0020D41A002033
:1058B00010B5094B094A04211A6009480022FFF774
:1058C00095FF012209210748FFF790FF02221221CC
:1058D0000548FFF78BFF10BD3C1B002059580410F2
:1058E000041A00206C1A0020D41A002010B50248B7
:1058F00000F0B9FA10BDC046451B002010B50248A3
:1059000000F0B2FA10BDC046451B002010B50400DF
:10591000FFF7ECFF236A002B02D0FFF7EFFF10BD6B
:10592000044B2362044B1B68002BF6D1FFF7C0FF2A
:10593000F3E7C046755804103C1B0020F7B514006F
:10594000002600900191A5686768013F04D524688E
:10595000002CF8D13000FEBDAB89012B08D90E22F6
:10596000AB5E013304D029000098019B98470643A1
:105970006835EAE70FB407B5054904AB086804CBFE
:105980008168019300F0A8FB03B008BC04B018477D
:10599000381D002010B5034B01001868826800F024
:1059A00050FF10BD381D0020036A70B505000E00C1
:1059B0008468002B01D1FFF7A9FF636EDB0705D4D4
:1059C000A3899B0502D4A06D00F04DFAA3891B07A3
:1059D00002D52369002B1FD12100280000F088F98F
:1059E000002819D001256D42636EDB0705D4A38919
:1059F0009B0502D4A06D00F037FA280070BD013677
:105A0000A360002B04DAA2699A4216DC0A2914D09A
:105A100023685A1C22601970A3683178013B002961
:105A2000EDD1A360002B0FDA220028000A3100F02C
:105A30001DF90130D6D00A25D6E72200280000F053
:105A400015F90130E8D1CDE723685A1C22600A22FB
:105A50001A70F0E710B5034B01001868FFF7A4FFB8
:105A600010BDC046381D0020F0B51D00574B85B055
:105A70001E6804000F000092002E05D0336A002B30
:105A800002D13000FFF742FF009B022B05D0012B13
:105A900000D997E0002D00DA94E0636EDB0705D4AF
:105AA000A3899B0502D4A06D00F0DDF92100300030
:105AB00000F030FE616B002908D023004433994286
:105AC00002D0300000F0DAF9002363630023A36101
:105AD0006360A3891B0603D53000216900F0CEF96D
